S00F000054656D706C6174652E733139A9
S1130000F817002011040000091200000912000072
S11300100912000009120000091200000912000070
S11300200912000009120000091200000912000060
S11300300912000009120000091200000912000050
S11300400912000009120000091200000912000040
S1130400FFFFFFFFFFFFFFFFFFFFFFFFFEFFFFFFF9
S113041000200021002200230024002500260027BC
S113042062B600F0FEFDFEE710B50C00116801296C
S113043002D0022904D009E0C0B25168884705E01F
S1130440916808709068401C9060FFE72068401C29
S1130450206010BDF0B51C000026050000202870A7
S11304606D1C002A1DD00F68002F06D13020287083
S1130470761C3000F0BD30320EE0002FF9D0380089
S1130480210000F065FA0100080060433A1A002ACE
S1130490F1D5D043020031320F002A706D1C761C56
S11304A0EBE70F68002F08D130202870761CE0E7B6
S11304B037300F0028706D1C761C002FD9D03800FF
S11304C0210000F048FA010008006043381A0A28A5
S11304D0EED23030EDE7F8B50F0016001D00040031
S11304E005E02A0031003020FFF79EFF641CBC4267
S11304F0F7DBF1BDF8B50F0016001D00040005E0A0
S11305002A0031002020FFF78FFF641CBC42F7DB78
S1130510F1BDF1B590B01600002000900C0009E088
S1130520109A6946FFF780FF03E03068361D009992
S11305300160641C2078002800D1BEE1252811D078
S11305400A2804D0109A6946FFF76EFF09E0109A52
S113055069460D20FFF768FF109A69460A20FFF7E5
S113056063FFE6E70027002102E038000127074384
S113057000291FD1641C207820280CD0232812D0F5
S11305802B2804D02D28F0D0302808D00FE03800D4
S113059002270743ECE7380004270743E8E738005D
S11305A008270743E4E7380010270743E0E7641E01
S11305B00121DDE700200190002105E0019A0A23D2
S11305C05A43101830380190002908D1641C20784F
S11305D00200303A092AF1D9641E0121F4E7641CAF
S11305E020782E280BD10021FFE7002908D1641CB4
S11305F0207830380928F8D9641E0121F5E7641EF3
S1130600641C20784C2806D0682802D06C2801D0BD
S113061002E002E001E000E0641E641C20780100B6
S1130620582971D0622900D1CAE0632900D113E1AD
S1130630642913D0692911D06E2900D175E76F2977
S113064000D1B2E0702900D1C5E0732900D10BE1DB
S1130650752900D1CAE0782956D061E73068361D83
S113066006900A23012206A907A8FFF7F3FE050056
S113067007A8401905900698002803D52D2003905B
S11306806D1C0DE0B80703D52B2003906D1C07E00B
S1130690780703D5202003906D1C01E0002003900F
S11306A000200490380711D50398002804D0109A2C
S11306B069460398FFF7B8FE01200490109B6A4630
S11306C001992800FFF707FF019D11E0F8070FD4F7
S11306D0109B6A4601992800FFF70CFF0398002835
S11306E004D0109A69460398FFF79EFE01200490F7
S11306F00498002807D10398002804D0109A69466A
S11307000398FFF791FE9AE03068361D029010239B
S1130710002202A907A8FFF79DFE050007A84019BB
S1130720059000200490380715D5F8060BD5109ACB
S113073069463020FFF778FE109A69467820FFF763
S113074073FE01200490109B6A4601992800FFF76C
S1130750C2FE019D18E0F80716D4F80600D5AD1CBA
S1130760109B6A4601992800FFF7C4FEF8060BD5D2
S1130770109A69463020FFF757FE109A6946782090
S1130780FFF752FE01200490F8060DD504980028C6
S11307900AD1109A69463020FFF746FE109A69463E
S11307A07820FFF741FEAD1C49E03068361D029009
S11307B00823002202A907A8FFF74CFE05001FE04A
S11307C03068361D02900223002202A907A8FFF711
S11307D041FE050014E03068361D0290102300220B
S11307E002A907A8FFF736FE050009E03068361DA8
S11307F002900A23002202A907A8FFF72BFE050096
S113080007A840190590380707D5109B6A46019937
S11308102800FFF760FE019D11E0F8070FD4109B3C
S11308206A4601992800FFF765FE08E0109A6946B8
S113083005980078FFF7F8FD0598401E0590059887
S113084000780028F2D1F80705D5109B6A46019973
S11308502800FFF74FFE6CE63068361DC0B2109AD0
S11308606946FFF7E1FD64E63068361D039003989E
S1130870002821D0039800F0C5F80500F8070FD42C
S1130880109B6A4601992800FFF734FE08E0109A8D
S1130890694603980078FFF7C7FD0398401C03904E
S11308A0039800780028F2D1F80705D5109B6A4612
S11308B001992800FFF71EFE3BE6009811B0F0BD39
S11308C080B5010012480078002804D1C9B211484B
S11308D000F048F90CE00E480078012804D1C9B2B0
S11308E00D4800F02FF903E0C9B20C4800F02AF9D2
S11308F001BD0CB4E0B5064A107001200090084810
S1130900019004AA6846FFF704FE039906B008475D
S1130910C0FCFF1F00A0064000B0064000C0064017
S1130920C1080000F446002804D4494200F013F83A
S1130930404260474042002905D45FD000F00BF8E4
S1130940404249426047494200F005F84942604745
S113095003460B43E6D40022030A8B420BD203095D
S11309608B4219D243088B422ED2411A00D201463F
S1130970524110467047FF2209023FD012068B42B3
S113098005D3121209028B4201D312120902030980
S11309908B4219D300E0090AC3098B4201D3CB016E
S11309A0C01A524183098B4201D38B01C01A5241B0
S11309B043098B4201D34B01C01A524103098B42B4
S11309C001D30B01C01A5241C3088B4201D3CB009F
S11309D0C01A524183088B4201D38B00C01A524182
S11309E043088B4201D34B00C01A5241884200D3C2
S11309F0401A5241CFD201461046704708B500F064
S1130A00B7F808BD00B501000020002902D100207C
S1130A1005E0401C0A00511C1278002AF9D100BDDF
S1130A20F7B51E00C0B2002813D1494909688022D5
S1130A30D2040A4346490A6045490968454A0A40BE
S1130A4043490A60444909688022D2000A43424962
S1130A500A60C0B2012806D13F4909688022120108
S1130A600A433D490A60C0B2022806D13A480068E8
S1130A70802149010143384801600A9D099F089C6F
S1130A80019800F0ACF8200000F0A9F83200D2B2CE
S1130A906846017A019800F0DAF82A00D2B23900E7
S1130AA0C9B2200000F0D3F8F7BD30B50400080047
S1130AB011002A4DE4B2012C0BD1284D274A95424E
S1130AC00DD1254A126880231B011343224A136067
S1130AD00CE0E4B2022C01D1214DEFE7FEE71E4AFF
S1130AE0126880235B0113431B4A1360EA78F323E3
S1130AF01340EB70AA78AA70FA2292005043102295
S1130B005143FFF725FF2A78E0211140020092B2F9
S1130B10120AD206D20E0A432A706870E8780C21B1
S1130B200143E970E4B2012C04D1E8780C210143BB
S1130B30E97006E0E4B2022C03D1E8780C21014309
S1130B40E97030BD00B502791206FCD5C17100BD53
S1130B5004800440FFFFFEFF3480044000B00640E0
S1130B6000C0064000B502791206FCD5C17100BD73
S1130B707047000070B505000C001600280000F056
S1130B802EF801222100C9B2280000F060F83200DA
S1130B90D2B22100C9B2280000F0BEF870BD00B581
S1130BA0D2B2002A03D0022A0DD006D311E0826803
S1130BB001238B401343836010E0426801238B4080
S1130BC0134343600AE0C26801238B401343C360AC
S1130BD004E0826801238B401343836000BD00B5A9
S1130BE05449884207D15448006880218900014350
S1130BF0514801602AE05149884207D14E480068B3
S1130C008021C90001434C4801601FE04C498842DF
S1130C1007D1494800688021090101434648016021
S1130C2014E04849884207D14348006880214901BB
S1130C3001434148016009E04349884206D13E48E6
S1130C4000688021890101433B48016000BD00B573
S1130C50384B984210D13D48C9B204234B43C05885
S1130C60D2B21202E023DB00134003433748C9B277
S1130C700422514343504EE0304B984210D1344843
S1130C80C9B204234B43C058D2B21202E023DB00A2
S1130C90134003432E48C9B20422514343503AE05F
S1130CA0274B984210D12B48C9B204234B43C05858
S1130CB0D2B21202E023DB00134003432548C9B239
S1130CC004225143435026E01E4B984210D122483F
S1130CD0C9B204234B43C058D2B21202E023DB0052
S1130CE0134003431C48C9B204225143435012E049
S1130CF0154B98420FD11948C9B204234B43C0582D
S1130D00D2B21202E023DB00134003431348C9B2FA
S1130D1004225143435000BD00B5D2B2002A01D091
S1130D20002200E001224369D2B28A401A434261A0
S1130D3000BD000000F00F403880044040F00F4038
S1130D4080F00F40C0F00F4000F10F4000900440CD
S1130D5000A0044000B0044000C0044000D004409F
S1130D6080B500220021012000F011F800220121A9
S1130D70012000F0CDF80021002000F0F3F86248D3
S1130D8000688021490201435F48016001BD10B53C
S1130D90C0B2012806D15D480078042303435B48B0
S1130DA0037005E059480078FB230340574803705B
S1130DB0794800780B0130241C40044376480470C1
S1130DC0C9B200294BD1012A0ED0022A11D0042A1B
S1130DD016D0082A1BD0102A20D0202A25D0402A39
S1130DE02AD0802A2FD035E0484800784749087037
S1130DF088E046480078082101434448017081E0B6
S1130E004248007810210143404801707AE03F488D
S1130E100078182101433D48017073E03B48007895
S1130E2020210143394801706CE0384800782821BA
S1130E3001433648017065E03448007830210143AD
S1130E40324801705EE031480078382101432F4870
S1130E50017057E02D4800782C49087052E0203A80
S1130E6016D0203A19D0403A1ED0803A23D08020A0
S1130E704000121A26D080208000121A29D0802027
S1130E804000121A2CD080204000121A2FD035E0D6
S1130E901E4800781D49087034E01C480078082179
S1130EA001431A4801702DE01848007810210143CD
S1130EB01648017026E015480078182101431348AC
S1130EC001701FE011480078202101430F48017090
S1130ED018E00E480078282101430C48017011E005
S1130EE00A48007830210143084801700AE00748A5
S1130EF00078382101430548017003E00348007875
S1130F000249087010BD00004480044000400640BF
S1130F1010B5224B1B784001602404401C431F4839
S1130F200470C9B2012906D11C480078802101430C
S1130F301A48017005E0194800784006400E174928
S1130F400870D2B2012A06D1124800781021014358
S1130F501048017005E00F480078EF2101400D486A
S1130F60017010BD00B5C0B2012806D10C4800784C
S1130F70402202430A48027005E009480078BF2273
S1130F800240074802700748007889010143054878
S1130F90017000BD08400640014006400340064081
S1130FA0054006400040064080B523482349884256
S1130FB00ED0002008E021490422424389581E4AE9
S1130FC004234343D150401C822149008842F2D378
S1130FD0194800F047F81A491A4A1B48801A03E0D6
S1130FE013780B70521C491C0300581E002BF7D1B8
S1130FF016491748401A02E000220A70491C0200F0
S1131000501E002AF8D11349134A1448801A03E0E9
S113101013780B70521C491C0300581E002BF7D187
S113102001BD80B500200E490860FFF7BDFFFFF742
S113103097FE00F01DF8FEE700FCFF1F0000000013
S1131040000000000000000000000000C0FCFF1FC2
S1131050C4FCFF1FC4FCFF1F0A1200000A12000098
S113106000810440014908607047000008ED00E079
S113107080B500F00EF813490220FFF73AFC022273
S11310801D211148FFF78BFDFA20400000F020F8E5
S1131090F5E7E0B500221D210B48FFF76BFD0420A6
S11310A00290172001900848009004231622064954
S11310B00220FFF7B5FC9622920104490220FFF7B3
S11310C0F4FC07BD9811000000F10F40C05D000062
S11310D000B50F49096801220A430D490A6000213D
S11310E00C4A11600C49086005200C490860094845
S11310F000680121014307480160064800680006B2
S1131100FBD504480068012188430249086000BDFA
S113111038800440000004400800044004000440F7
S113112070B401000123002413E00A68091D1A4267
S113113002D04D466D1E52191460121D001F042862
S1131140FAD21500860701D51480AD1C184000D0D2
S11311502C700868091D0028E7D1080070BC70478E
S113116010B5074979441831064C7C44163404E020
S1131170081D0A68891888470100A142F8D110BDEA
S1131180080000001400000099FFFFFF04000000A5
S1131190C0FCFF1F000000000A2057656C636F6DE0
S11311A06520746F204B4C32365A2044656D6F0AAB
S11311B00A00000000F00BF8002801D0FFF7D0FF70
S11311C0002000BF00BFFFF753FF00F002F801202A
S11311D0704780B500F002F801BD000007463846AC
S11311E000F002F8FBE7000080B500BF00BF024A30
S11311F011001820ABBEFBE72600020000BF00BFB1
S10D120000BF00BFFFF7D6FF7047E0
S90311FDEE
