S02400004B6C32367A5F436F737461526963615F41544D5F46696A6F5F4941522E737265632C
S1130000F8170020110400009D2800009D2800001E
S11300109D2800009D2800009D2800009D280000C8
S11300209D2800009D2800009D2800009D280000B8
S11300309D2800009D2800009D2800009D280000A8
S11300409D2800009D2800009D2800009D28000098
S11300509D2800009D2800009D2800009D28000088
S11300609D2800009D2800009D2800009D28000078
S11300709D2800009D2800009D2800009D28000068
S11300809D2800009D2800009D2800009D28000058
S1130090711A00009D2800009D2800009D28000082
S11300A09D2800009D2800009D2800009D28000038
S11300B09D2800009D2800009D2800003F19000095
S11300C0FFFFFFFFFFFFFFFFFFFFFFFFFFFFFFFF3C
S11300D0FFFFFFFFFFFFFFFFFFFFFFFFFFFFFFFF2C
S11300E0FFFFFFFFFFFFFFFFFFFFFFFFFFFFFFFF1C
S11300F0FFFFFFFFFFFFFFFFFFFFFFFFFFFFFFFF0C
S1130400FFFFFFFFFFFFFFFFFFFFFFFFFEFFFFFFF9
S113041000200021002200230024002500260027BC
S113042062B602F01CF9FEE780B500220021BD4847
S113043000F04EFB01BD80B501220021B94800F057
S11304405CFB01BD80B500220021B64800F055FBDD
S113045001BD80B500220021B34800F04EFB01BD70
S113046080B501220021B04800F047FB01BD10B562
S11304700400FFF7EEFFAD4800F0E8FCE106C90E0A
S1130480AA4800F0E8FCA94800F0E0FCFF21A748D6
S113049000F0E1FCA54800F0E0FCA44800F0F0FC0A
S11304A0A24800F0DAFCA14800F0EAFC040000F0E5
S11304B0E9FC00F0E7FCFFF7D3FF2000C0B210BD59
S11304C070B506000C001500FFF7C3FF974800F055
S11304D0BDFCF006C00E20210143C9B2934800F0D0
S11304E0BAFC924800F0B9FC904800F0C9FC060040
S11304F00DE08E4800F0AAFC21788C4800F0ABFC9B
S1130500641C8A4800F0A9FC884800F0B9FC280063
S1130510451EC0B20028ECD100F0B4FCFFF7A0FFE8
S11305203000C0B270BD38B505000C00FFF791FF74
S11305307E4800F08BFCE806C00E20210143C9B2BE
S11305407A4800F088FC794800F080FC2100C9B2A8
S1130550764800F080FC754800F07FFC734800F09A
S11305608FFC0400714800F078FC704800F088FCAF
S113057000F088FCFFF774FF2000C0B232BD10B554
S1130580002095490870202092490870002096495F
S113059008700520914908700520914908600020E1
S11305A0904908700024FFF73FFFFFF74BFF9620A8
S11305B000F070FC0C210020FFF7B5FF0F2105208F
S11305C000F06CF8022000F039F8002802D0012075
S11305D0814908700620FFF74AFF0400002000F05C
S11305E02DF800F065F800211D20FFF79CFF002185
S11305F01C20FFF798FF00207B490870702107201A
S1130600FFF791FF4C2000F059F800F066F800F075
S113061069F800F08DF80020FFF729FFFE21014062
S11306200020FFF780FFE4B2002C04D0E4B2FF2CDA
S113063001D0012000E00020C0B210BD70B506005A
S113064000250620FFF713FF04002000D7240440F0
S1130650FA2066490860F6B2022E07D12000202451
S11306600443E12040006149086008E0F6B2012E2D
S113067002D1200008240443BE205C490860210004
S1130680C9B20620FFF74FFF0620FFF7F0FEE4B2E1
S1130690A04200D101252800C0B270BD80B5000180
S11306A00907090F0143C9B20420FFF73CFF01BD4C
S11306B080B573215020FFF736FF01BD80B50100DE
S11306C07D200A000300D2B2DBB29A4200D30100BB
S11306D0C9B20520FFF727FF01BD80B5E22000F075
S11306E006F802BD80B5E12000F001F802BD10B5A6
S11306F00400FFF7AEFE0D4800F0A8FB2100C9B2CC
S11307000A4800F0A8FB094800F0A7FB074800F0DE
S1130710B7FB040000F0B6FBFFF7A2FE2000C0B256
S113072010BD000080F00F40C0F00F400060074093
S113073080B50020FFF79BFE810708D40221014306
S1130740C9B20020FFF7EFFE052000F0A3FB01BDB6
S113075080B5FFF777FE0020FFF789FEFD210140F9
S11307600020FFF7E0FE01BD1CB50400E4B2002C3C
S113077005D11A48027869461A4800F0C1FBE4B270
S1130780072C26DAE4B2022C08DA14480278694607
S11307904148E4B2005DFFF793FE06E0012269469A
S11307A03D48E4B2005DFFF78BFE0A4801783B4800
S11307B0E4B2005DFFF7B7FE0220FFF758FE012107
S11307C0374AE4B2125D91400143C9B20220FFF7F7
S11307D0AAFE13BD47FCFF1F46FCFF1F49FCFF1F79
S11307E034FCFF1F38FCFF1F48FCFF1F30FCFF1FB9
S11307F0F8B50C000600534800782100C9B28842BD
S113080001D25048047878480078002801D00025A7
S113081002E04C480078051BFFF71BFE8D4800F0F2
S113082015FB61218B4800F016FB8A4800F015FB8C
S1130830884800F025FB07000EE0864800F006FB20
S1130840FF21844800F007FB824800F006FB814842
S113085000F016FB3070761C2000441EC0B2002845
S1130860EBD12800451EC0B200280DD0794800F015
S1130870EDFAFF21774800F0EEFA764800F0EDFA41
S1130880744800F0FDFAECE700F0FCFAFFF7E8FD2D
S11308903800C0B2F2BD0000A8280000B028000053
S11308A0B828000080B5FF20FFF721FF02BD80B506
S11308B0002000F001F802BD10B504001720FFF776
S11308C0D6FDC0070AD4002C06D0FFF7EBFFC0B258
S11308D040084007400F2070012000E0002010BDB8
S11308E080B5C9B2FFF784FF70210720FFF71BFE14
S11308F001BD80B5FFF71CFF0020FFF7B8FD012103
S11309000143C9B20020FFF70EFE70210720FFF754
S11309100AFEFFF790FD50480078002806D01348DF
S113092002784D490A20FFF7CBFD02E0002000F0D9
S11309300BF81D20FFF79BFD800701D5FFF7D2FEC2
S113094001BD000047FCFF1F10B504000220FFF7A3
S11309508EFD0121414AE4B2125D914088430100B9
S1130960C9B20220FFF7DFFD10BD000049FCFF1FE4
S113097080B5C0B2002804D03F210120FFF7D3FD89
S113098003E000210120FFF7CEFD01BD80B51D204D
S1130990FFF76DFD06210143C9B21D20FFF7C3FD1A
S11309A01C20FFF764FD03210143C9B21C20FFF79B
S11309B0BAFD01200C49087001BD80B51D20FFF768
S11309C056FD04210143C9B21D20FFF7ACFD1C20D4
S11309D0FFF74DFD3F210143C9B21C20FFF7A3FDE2
S11309E001200149087001BD48FCFF1F70B50600D5
S11309F00C00D2B2202A01DA150000E02025FFF70E
S1130A0028FD144800F022FA7007400FA821014382
S1130A10C9B2104800F01FFA0E4800F01EFA0D4843
S1130A2000F02EFA0DE00B4800F010FA2178094886
S1130A3000F011FA641C074800F00FFA054800F0B2
S1130A401FFA2800451EC0B20028ECD1FFF708FDAC
S1130A5070BD00000060074038FCFF1FB82800008C
S1130A6080B51D20FFF703FD01210143C9B21D20FC
S1130A70FFF759FD01BD10B504000620FFF7F7FC90
S1130A80F8210140E4B2042C01DB072402E0E4B2C3
S1130A906400641C0C432100C9B20620FFF743FD27
S1130AA010BD70B504000D0016000020FFF7DFFC38
S1130AB001008F2008400200280161010143B001B8
S1130AC0084310430100C9B20020FFF72CFD70BD9C
S1130AD070B505000C001600280000F037F801225C
S1130AE02100C9B2280000F069F83200D2B2210016
S1130AF0C9B2280000F0C7F870BD00B5D2B2002A10
S1130B0003D0022A0DD006D311E0826801238B4062
S1130B101343836010E0426801238B401343436016
S1130B200AE0C26801238B401343C36004E0826877
S1130B3001238B401343836000BD00B50069C840A6
S1130B40C00701D5012000E0002000BD00B57A49AE
S1130B50884207D179480068802189000143774899
S1130B6001602AE07649884207D1744800688021F0
S1130B70C9000143714801601FE07249884207D1EE
S1130B806E4800688021090101436C48016014E04B
S1130B906D49884207D169480068802149010143B1
S1130BA06648016009E06949884206D163480068E3
S1130BB08021890101436148016000BD00B55E4B9D
S1130BC0984210D16248C9B204234B43C058D2B2F0
S1130BD01202E023DB00134003435D48C9B2042240
S1130BE0514343504EE0564B984210D15948C9B234
S1130BF004234B43C058D2B21202E023DB0013405B
S1130C0003435448C9B20422514343503AE04D4B84
S1130C10984210D15048C9B204234B43C058D2B2B1
S1130C201202E023DB00134003434B48C9B2042201
S1130C305143435026E0444B984210D14748C9B22F
S1130C4004234B43C058D2B21202E023DB0013400A
S1130C5003434248C9B204225143435012E03B4B80
S1130C6098420FD13E48C9B204234B43C058D2B274
S1130C701202E023DB00134003433948C9B20422C3
S1130C805143435000BD00B5D2B2002A01D0002226
S1130C9000E001224369D2B28A401A43426100BD96
S1130CA010B50024244CA0421BD1294CD2B2002AF6
S1130CB037D0C9B204204843205802220243C9B2A3
S1130CC0042048432250DBB2002B1FD0C9B20420B9
S1130CD04843205801220243C9B2042041436250D0
S1130CE029E0174CA04201D11A4CDFE7154CA04271
S1130CF001D1194CDAE7144CA04201D1174CD5E7C5
S1130D00124CA04201D1164CD0E714E0C9B2042021
S1130D104843205801229043C9B2042251436050F1
S1130D2009E0C9B204204843205802229043C9B2C2
S1130D3004225143605010BD00F00F40388004403D
S1130D4040F00F4080F00F40C0F00F4000F10F4022
S1130D500090044000A0044000B0044000C00440DF
S1130D6000D00440FEB506000C00089D099F0198C0
S1130D70FFF7ECFE3800FFF7E9FE0C98FFF7E6FEFC
S1130D800F98FFF7E3FE2A00D2B26846017A019871
S1130D90FFF714FF0BA802780AA801783800FFF7C0
S1130DA00DFF0EA802780DA801780C98FFF706FF36
S1130DB03048844207D1304800688021C903014388
S1130DC02D48016006E02C48006880210904014395
S1130DD029480160109DF6B2002E08D0119A29000E
S1130DE0C9B20F98FFF7EAFE1E20E07013E001225B
S1130DF02900C9B20F98FFF7E1FE00222900C9B209
S1130E000F98FFF740FF1020E07000222900C9B2BC
S1130E100F98FFF772FE0020A070A0781021014304
S1130E20A17022206070E07840210143E170F6B2A5
S1130E30002E0AD1002000E0401C0A28FCDB01221D
S1130E402900C9B20F98FFF758FEF7BD00B5017825
S1130E508906FCD500BD8171704700B5074900E0E3
S1130E60491E0278120602D489B20029F8D100BDC5
S1130E70000000000060074034800440FFFF0000D1
S1130E808079704700B5002000E0401C3228FCDB6C
S1130E9000BF00BD00B50F49096801220A430D498E
S1130EA00A6000210C4A11600C49086005200C49B5
S1130EB008600948006801210143074801600648A9
S1130EC000680006FBD504480068012188430249F4
S1130ED0086000BD3880044000000440080004405D
S1130EE00400044000B501000020002902D10020C4
S1130EF005E0401C0A00511C1278002AF9D100BDFB
S1130F0030B503000C00002819D0002917D0002A9E
S1130F1015D09107890F521A920803E025681D60C5
S1130F20241D1B1D15006A1E002DF7D103E0227835
S1130F301A70641C5B1C0A00511E002AF7D130BDD4
S1130F4010B50022491E05E0835C445C845443547C
S1130F50521C491E8A42F7DB10BDF8B507000D008C
S1130F60160000240BE038000A2100F031F830317B
S1130F702955641C38000A2100F02AF80700002FC4
S1130F80F1D1B44203DA30202855641CF9E721007A
S1130F902800FFF7D5FF002028552000F2BDF446B5
S1130FA0002804D4494200F013F84042604740420C
S1130FB0002905D45FD000F00BF840424942604755
S1130FC0494200F005F84942604703460B43E6D422
S1130FD00022030A8B420BD203098B4219D2430825
S1130FE08B422ED2411A00D201465241104670471C
S1130FF0FF2209023FD012068B4205D312120902C6
S11310008B4201D31212090203098B4219D300E067
S1131010090AC3098B4201D3CB01C01A5241830987
S11310208B4201D38B01C01A524143098B4201D335
S11310304B01C01A524103098B4201D30B01C01A60
S11310405241C3088B4201D3CB00C01A52418308DA
S11310508B4201D38B00C01A524143088B4201D307
S11310604B00C01A5241884200D3401A5241CFD299
S113107001461046704708B500F002F808BD0000AC
S11310807047000010B50C001168012902D0022934
S113109004D009E0C0B25168884705E0916808703F
S11310A09068401C9060FFE72068401C206010BDE1
S11310B0F0B51C0000260500002028706D1C002AD5
S11310C01DD00F68002F06D130202870761C300008
S11310D0F0BD30320EE0002FF9D038002100FFF7C8
S11310E074FF0100080060433A1A002AF1D5D04386
S11310F0020031320F002A706D1C761CEBE70F687A
S1131100002F08D130202870761CE0E737300F001C
S113111028706D1C761C002FD9D038002100FFF7F1
S113112057FF010008006043381A0A28EED2303015
S1131130EDE7F8B50F0016001D00040005E02A00D5
S113114031003020FFF79EFF641CBC42F7DBF1BD89
S1131150F8B50F0016001D00040005E02A00310058
S11311602020FFF78FFF641CBC42F7DBF1BDF1B513
S113117090B01600002000900C0009E0109A694617
S1131180FFF780FF03E03068361D00990160641C9E
S11311902078002800D1BEE1252811D00A2804D0E7
S11311A0109A6946FFF76EFF09E0109A69460D2010
S11311B0FFF768FF109A69460A20FFF763FFE6E726
S11311C00027002102E038000127074300291FD12E
S11311D0641C207820280CD0232812D02B2804D07B
S11311E02D28F0D0302808D00FE03800022707431C
S11311F0ECE7380004270743E8E7380008270743EB
S1131200E4E7380010270743E0E7641E0121DDE727
S113121000200190002105E0019A0A235A43101886
S113122030380190002908D1641C20780200303A3B
S1131230092AF1D9641E0121F4E7641C20782E28C0
S11312400BD10021FFE7002908D1641C2078303835
S11312500928F8D9641E0121F5E7641E641C20786E
S11312604C2806D0682802D06C2801D002E002E0A5
S113127001E000E0641E641C20780100582971D04C
S1131280622900D1CAE0632900D113E1642913D093
S1131290692911D06E2900D175E76F2900D1B2E018
S11312A0702900D1C5E0732900D10BE1752900D163
S11312B0CAE0782956D061E73068361D06900A23C3
S11312C0012206A907A8FFF7F3FE050007A84019A5
S11312D005900698002803D52D2003906D1C0DE081
S11312E0B80703D52B2003906D1C07E0780703D5BE
S11312F0202003906D1C01E0002003900020049046
S1131300380711D50398002804D0109A6946039829
S1131310FFF7B8FE01200490109B6A46019928004B
S1131320FFF707FF019D11E0F8070FD4109B6A46F1
S113133001992800FFF70CFF0398002804D0109AA5
S113134069460398FFF79EFE012004900498002844
S113135007D10398002804D0109A69460398FFF730
S113136091FE9AE03068361D02901023002202A9F3
S113137007A8FFF79DFE050007A840190590002067
S11313800490380715D5F8060BD5109A6946302015
S1131390FFF778FE109A69467820FFF773FE012064
S11313A00490109B6A4601992800FFF7C2FE019D34
S11313B018E0F80716D4F80600D5AD1C109B6A4651
S11313C001992800FFF7C4FEF8060BD5109A694668
S11313D03020FFF757FE109A69467820FFF752FE37
S11313E001200490F8060DD5049800280AD1109A1B
S11313F069463020FFF746FE109A69467820FFF7C9
S113140041FEAD1C49E03068361D029008230022DD
S113141002A907A8FFF74CFE05001FE03068361D3F
S113142002900223002202A907A8FFF741FE05004B
S113143014E03068361D02901023002202A907A888
S1131440FFF736FE050009E03068361D02900A23D6
S1131450002202A907A8FFF72BFE050007A84019E0
S11314600590380707D5109B6A4601992800FFF7B5
S113147060FE019D11E0F8070FD4109B6A460199A4
S11314802800FFF765FE08E0109A69460598007881
S1131490FFF7F8FD0598401E059005980078002890
S11314A0F2D1F80705D5109B6A4601992800FFF789
S11314B04FFE6CE63068361DC0B2109A6946FFF7DD
S11314C0E1FD64E63068361D03900398002821D0BE
S11314D00398FFF707FD0500F8070FD4109B6A4631
S11314E001992800FFF734FE08E0109A6946039832
S11314F00078FFF7C7FD0398401C03900398007819
S11315000028F2D1F80705D5109B6A4601992800F6
S1131510FFF71EFE3BE6009811B0F0BD80B5010058
S113152012480078002804D1C9B2114800F06EF9BD
S11315300CE00E480078012804D1C9B20D4800F02F
S1131540B1F803E0C9B20C4800F0ACF801BD0CB42A
S1131550E0B5064A1070012000900848019004AAE2
S11315606846FFF704FE039906B0084745FCFF1FD1
S113157000A0064000B0064000C006401D15000053
S1131580F7B51E00C0B2002813D19449096880221F
S1131590D2040A4391490A6090490968904A0A4072
S11315A08E490A608F4909688022D2000A438D4916
S11315B00A60C0B2012806D18A4909688022120152
S11315C00A4388490A60C0B2022806D185480068E7
S11315D0802149010143834801600A9D099F089CB9
S11315E00198FFF7B3FA2000FFF7B0FA3200D2B245
S11315F06846017A0198FFF7E1FA2A00D2B239006D
S1131600C9B22000FFF7DAFAF7BD30B504000800CC
S11316101100754DE4B2012C0BD1734D724A954201
S11316200DD1704A126880231B0113436D4A136065
S11316300CE0E4B2022C01D16C4DEFE7FEE7694AFD
S1131640126880235B011343664A1360EA78F3232C
S11316501340EB70AA78AA70FA2292005043102229
S11316605143FFF7B2FC2A78E0211140020092B204
S1131670120AD206D20E0A432A706870E8780C2146
S11316800143E970E4B2012C04D1E8780C21014350
S1131690E97006E0E4B2022C03D1E87804210143A6
S11316A0E97030BD00B502791206FCD5C17100BDE8
S11316B0F8B5020000200026002700230020494836
S11316C000688023DB0003434648036048480078F1
S11316D0F32303404648037010002038454B9842DA
S11316E008D300223D4803681800434B03403B489D
S11316F00360FEE70C00FA208000424300920425B8
S11317000098EDB221006943FFF762FC01000098E4
S1131710EDB26943FFF75CFC844201D2061B00E092
S1131720261AEDB22F00052516E0201A0EE00098C7
S1131730EDB221006943FFF74BFC01000098EDB2C4
S11317406943FFF745FC8442EFD2001B864202D373
S11317500600EDB22F006D1CEDB2212DE7DB200059
S11317606421FFF735FC03214843864234D2380014
S1131770001F052805D221480078022101431F4893
S113178001701F480378DBB21F2083431900781EC1
S1131790C0B2C306DB0E0B43180019490870DB0600
S11317A0DB0E5B1C00985C432100FFF711FC010079
S11317B014480378DBB21F208343080AC006C00E16
S11317C01843104A107010480170094800780C2121
S11317D0014307480170F1BDFEE7000004800440A6
S11317E0FFFFFEFF3480044000B0064000C0064006
S11317F003A0064031C30000FFFFFFF30BA0064027
S11318000AA0064000A0064001A0064000B50279E7
S11318101206FCD5C17100BD00B58BB000F0B2F961
S11318208F490220FFF793FE8E490220FFF78FFEB7
S11318308B490220FFF78BFE01221D218A48FFF706
S11318405CF9012201218948FFF757F9002202219E
S11318508648FFF752F908A80C2100F0F7FA05A80A
S11318600C2100F0F3FA02A80C2100F0EFFA052293
S113187008A987480068FFF770FB0A2205A9854874
S11318800068FFF76AFB0A2202A983480068FFF791
S113189064FB08AA81490220FFF759FE05AA80A12A
S11318A00220FFF754FE02AA7E490220FFF74FFEF2
S11318B07D4800F02BF97D490CC9083900218018B6
S11318C059417A4A03C2083A684679490CC90CC09E
S11318D00839083868460CC8083876490220FFF7EA
S11318E036FE72480CC8083873490220FFF72FFEF1
S11318F06D4A72490220FFF72AFEFEF740FE0320DC
S1131900FFF7B9F86420FEF7D9FE00220121012077
S1131910FFF7C7F86A4AF0230020FEF725FF0120ED
S1131920FFF726F8FFF79CF8FFF730F8FFF745F8C4
S1131930FEF7DFFF63490220FFF709FEFEE780B5EB
S113194061480068C0010FD55F48006880214904E0
S113195001435D48016003215C48FFF7EEF800286D
S113196002D106205A4908705A480068C00112D5AD
S11319705848006880214904014356480160042105
S11319805248FFF7DAF8002805D1012052490870BF
S113199001205249087052480068C00137D55048A8
S11319A000688021490401434D48016004204849EE
S11319B0087000204B490870012203212B48FFF7CF
S11319C09CF8FA20C000FFF765FA0022032127489B
S11319D0FFF793F8FEF7BCFE00F0DEFA00221D21AB
S11319E02148FFF78AF8002201212048FFF785F8F3
S11319F0002202211D48FFF780F83BA2032180202A
S1131A00C00000F031FB39490220FFF7A0FD38483F
S1131A100068C00122D5364800688021490401438A
S1131A20334801606846002101700B221E490020E2
S1131A30FEF7DCFFFEF73BFF00280FD027480278B3
S1131A402C490220FFF783FD01216846FEF748FF79
S1131A506846027829490220FFF779FD01BD00009C
S1131A60E02600007027000000F10F4040F00F4016
S1131A7001202449086020480068102188431E4939
S1131A80086000202049086000201D490860704754
S1131A90588004405C800440608004407C2800003E
S1131AA0257300009428000024FCFF1F10FCFF1F76
S1131AB0A0280000D8270000F027000038280000E4
S1131AC0F0F0F0F04C2800000CB0044080F00F401F
S1131AD042FCFF1F10B0044044FCFF1F41FCFF1FE9
S1131AE014B0044043FCFF1F300000003C270000FA
S1131AF018B004400828000014D003402028000037
S1131B0000D0034020FCFF1F08D0034070B506003E
S1131B101A4802681A490220FFF719FD002400251B
S1131B2016480068000E00060021001969410400EF
S1131B300D0012480168FF2000040840002100192C
S1131B40694104000D000D480168FF2000020840AF
S1131B5000210019694104000D0008480068C0B262
S1131B6000210019694104000D000A2231000348D4
S1131B700068FFF7F2F9200070BD00005C800440AB
S1131B805C28000000B58BB0002207219048FEF7C6
S1131B909FFF00221F218F48FEF79AFF00221D217C
S1131BA08C48FEF795FF002202218B48FEF790FF38
S1131BB0002201218848FEF78BFF0022032186487A
S1131BC0FEF786FF012204218148FEF781FF0122EE
S1131BD003217F48FEF77CFF012206217F48FEF7A0
S1131BE077FF012205217A48FEF772FF01220621C0
S1131BF07748FEF76DFF0520029019200190754883
S1131C000090052318227349754800F0B1F90220A9
S1131C100990002008907148079002200690012046
S1131C2005906E48049002200390032002906B48B4
S1131C300190022000900223684A6A490020FFF7BD
S1131C4091F8012000F05DF8012000F090F80421E3
S1131C505F48FEF772FF002803D101206249087033
S1131C6029E000206049087060480068802109016B
S1131C7001435E4801605E4800685E4901435C4878
S1131C8001605A48006880210901014357480160F6
S1131C905948006857490143574801605348006850
S1131CA080210901014351480160544800685149A9
S1131CB00143524801604D480068802109010143F5
S1131CC04A4801604E4800684A4901434C48016053
S1131CD01F2000F0EEF900211F2000F010FA14205C
S1131CE000F0E7F90321142000F009FA0020009025
S1131CF0002300220021002000F024FA62B60BB079
S1131D0000BDE0B5C0B2002817D004200290152011
S1131D10019030480090042314222E490020FFF73C
S1131D202FFC962189013748FFF7C2FC364800781A
S1131D30402101433448017018E034480068802190
S1131D40C90001433148016031480078F321014062
S1131D502F4801700023012214211E48FEF7A0FF22
S1131D600023012215211B48FEF79AFF07BDE0B5A9
S1131D70C0B2002812D00420029017200190154808
S1131D8000900423162213490220FFF7F9FBE122F5
S1131D90520220490220FFF738FC18E01B48006873
S1131DA0802149010143194801601B480078F3214F
S1131DB00140194801700023012216210548FEF74D
S1131DC06FFF0023012217210248FEF769FF07BDB8
S1131DD080F00F4000F10F4040F00F40C0F00F4082
S1131DE0006006400060074040FCFF1F388004404C
S1131DF00CB0044003010A0010B0044014B00440C5
S1131E0018B0044080BB000002A0064034800440A7
S1131E1003A00640C05D000003C00640130030B4B8
S1131E2014001500103902D310393CC0FCD2490704
S1131E3000D30CC000D504C0890002D30280801CEA
S1131E40002900D5027030BC704700000022E5E78D
S1131E5000B5002001E000BF401C2828FBDB00BDCA
S1131E6010B504004B48006800F074FA3A21494860
S1131E70006800F06BFA4748006800F07DFA4548B6
S1131E80006800F082FA2100C9B24248006800F0FC
S1131E905DFA4048006800F06FFA3E48006800F0C0
S1131EA074FA3C48006800F04CFA3B213948006859
S1131EB000F04CFA3748006800F05EFA35480068D4
S1131EC000F063FA3348006800F027FA31480068EC
S1131ED000F032FA2F48006800F03AFA04002D4866
S1131EE0006800F049FA2B48006800F03CFA2948E1
S1131EF0006800F02DFA0400FFF7AAFF2000C0B22A
S1131F0010BD38B504000D002248006800F022FA24
S1131F103A212048006800F019FA1E48006800F0D1
S1131F202BFA1C48006800F030FA2100C9B21948A5
S1131F30006800F00BFA1748006800F01DFA154815
S1131F40006800F022FA2900C9B21248006800F0C3
S1131F50FDF91048006800F00FFA0E48006800F020
S1131F6014FA0C48006800F0FEF9FFF771FF31BD68
S1131F70FEB5089C099D0A9E064F3860F6B202968B
S1131F80EDB201950094DBB2D2B200F06FF900F02B
S1131F900DF8F7BD1CFCFF1F80B52A20FFF760FF7A
S1131FA0FE2101402A20FFF7ACFF01BD80B52A20A5
S1131FB0FFF756FF01210143C9B22A20FFF7A1FF11
S1131FC001BD000070B50E00002400250400A4B279
S1131FD0240A00020500ADB22D0A2248006800F070
S1131FE0B9F9A0211F48006800F0B0F91D48006845
S1131FF000F0C2F91B48006800F0C7F92100C9B21B
S11320001848006800F0A2F91648006800F0B4F916
S11320101448006800F0B9F92900C9B211480068F1
S113202000F094F90F48006800F0A6F90D48006824
S113203000F0ABF93100C9B20A48006800F086F933
S11320400848006800F098F90648006800F09DF917
S11320500448006800F087F90520FEF71BFF70BDF7
S11320600000000018FCFF1FF2B506001400200059
S1132070FEF738FF0700002507E0002130002A00A2
S1132080801880B2FFF79EFF6D1C68460078854279
S1132090F3DB002507E0615D30002A00801880B280
S11320A0FFF790FF6D1CBD42F5DBF1BD20490860D0
S11320B0704770B50400212C15DA1E480568012606
S11320C020002021FEF781FF8E402E431948066030
S11320D019480568012620002021FEF776FF8E406E
S11320E02E431548066070BD10B5212806DA012478
S11320F02021FEF76AFF8C401048046010BD10B523
S11321000C0000220021212800DB0122042C00DB2A
S11321100122D2B2012A0AD00421FEF756FF01009F
S11321200748C9B2042251434018A101017010BDEF
S113213008ED00E080E200E000E100E080E100E082
S113214000E400E0F1B50F0014001D003F480068F2
S11321503E4908603E4800688021890501433C48A7
S113216001601420FFF7C0FF1520FFF7BDFF3948B9
S113217000680121014337480160364800680121A5
S113218088433449086034480068C00702D50020F9
S113219032490860069E30480068102188432E4961
S11321A00860E4B22002EDB205432D480560F6B2A2
S11321B0002E02D01520FFF77CFF264800688021FE
S11321C04900014323480160002000E0401CC02175
S11321D0C9038842FADB0098204908602148006856
S11321E0102101431F4801601B480068102101436E
S11321F019480160002F22D0F6B2002E02D014201C
S1132200FFF757FF13480068802149000143114834
S11322100160002000E0401CC021C9038842FADBB1
S1132220114807600F480068042101430D4801600C
S113223009480068102101430748016005E0094886
S113224000680421884307490860F1BD0070044018
S11322503C80044010D0034014D0034000D003401D
S11322600CD003401CD0034008D00340F7B5040051
S11322701E002148844206D12048006840210143C1
S11322801E48016005E01D480068802101431B4889
S113229001600A9F089D0198FEF758FC3200D2B2F3
S11322A06846017A0198FEF789FC2800FEF74EFC87
S11322B03A00D2B209A801782800FEF77FFC0E4844
S11322C084420CD10E480078142101430C4801705B
S11322D00C480078802101430A4801700BE00A4849
S11322E000781F21014308480170084800788021C4
S11322F0014306480170F7BD006006403480044085
S1132300016006400260064001700640027006400B
S1132310817810220A43827070478178EF220A4044
S1132320827070478178DF220A408270704781781A
S113233020220A4382707047817808220A438270FF
S11323407047817804220A43827070470171704794
S11323500079704710B504002000FFF7E8FF200063
S1132360FFF7D6FF10BD10B504002000FFF7DAFF19
S11323702000FFF7D2FF10BD00B5C1788907FCD556
S1132380C17802220A43C27000BD00B5C078C007FC
S113239001D4012000E0002000BD000080B500222F
S11323A00021012000F011F800220121012000F099
S11323B0CDF80021002000F0F3F862480068802185
S11323C0490201435F48016001BD10B5C0B2012854
S11323D006D15D480078042303435B48037005E09D
S11323E059480078FB230340574803707948007824
S11323F00B0130241C40044376480470C9B2002900
S11324004BD1012A0ED0022A11D0042A16D0082A50
S11324101BD0102A20D0202A25D0402A2AD0802A56
S11324202FD035E0484800784749087088E046488E
S11324300078082101434448017081E04248007853
S113244010210143404801707AE03F480078182188
S113245001433D48017073E03B480078202101436B
S1132460394801706CE03848007828210143364827
S1132470017065E03448007830210143324801702E
S11324805EE031480078382101432F48017057E05D
S11324902D4800782C49087052E0203A16D0203A92
S11324A019D0403A1ED0803A23D080204000121A1E
S11324B026D080208000121A29D080204000121AD1
S11324C02CD080204000121A2FD035E01E4800780E
S11324D01D49087034E01C480078082101431A485B
S11324E001702DE01848007810210143164801704E
S11324F026E01548007818210143134801701FE0B5
S113250011480078202101430F48017018E00E485B
S11325100078282101430C48017011E00A48007832
S113252030210143084801700AE007480078382147
S113253001430548017003E003480078024908702C
S113254010BD0000448004400040064010B5224BFA
S11325501B784001602404401C431F480470C9B226
S1132560012906D11C480078802101431A480170D2
S113257005E0194800784006400E17490870D2B2A9
S1132580012A06D112480078102101431048017035
S113259005E00F480078EF2101400D48017010BD9F
S11325A000B5C0B2012806D10C480078402202438D
S11325B00A48027005E009480078BF220240074833
S11325C0027007480078890101430548017000BD85
S11325D008400640014006400340064005400640CE
S11325E00040064080B52348234988420ED000208D
S11325F008E021490422424389581E4A04234343E4
S1132600D150401C822149008842F2D31948FFF777
S11326104DFD1A491A4A1B48801A03E013780B70BF
S1132620521C491C0300581E002BF7D116491748A9
S1132630401A02E000220A70491C0200501E002ABF
S1132640F8D11349134A1448801A03E013780B7025
S1132650521C491C0300581E002BF7D101BD80B544
S113266000200E490860FFF7BDFFFFF797FEFFF754
S1132670D3F8FEE700F8FF1F0000000010FCFF1F66
S11326806C2800007C28000020FCFF1F4CFCFF1F6E
S11326904CFCFF1FC0280000C0280000008104403B
S11326A070B401000123002413E00A68091D1A42D2
S11326B002D04D466D1E52191460121D001F0428CD
S11326C0FAD21500860701D51480AD1C184000D03D
S11326D02C700868091D0028E7D1080070BC7047F9
S11326E02D2D2D2D2D2D2D2D2D2D2D2D2D2D2D2D16
S11326F02D2D2D2D2D2D2D2D2D2D2D2D2D2D2D2D06
S11327002D2D2D2D2D2D2D2D2D2D2D2D2D2D2D2DF5
S11327102D0A0A0010B5074979441831064C7C4447
S1132720163404E0081D0A68891888470100A1428C
S1132730F8D110BD2C00000038000000536574204F
S1132740636F6E74696E756F73206D6F646520625C
S1132750793A20496E70757420312E0A0A000000FF
S113276041FFFFFF2C00000020FCFF1F00000000C1
S113277020202057656C636F6D6520746F204E5266
S11327804632344C30313A2046494A4F0A0A000056
S113279000F00BF8002801D0FFF7BCFF002000BFB9
S11327A000BFFFF739F800F002F80120704780B548
S11327B000F002F801BD00000746384600F002F8B8
S11327C0FBE7000080B500BF00BF024A11001820DB
S11327D0ABBEFBE7260002005049504520617474EB
S11327E06163682069733A20307825780A00000014
S11327F05049504520776174636866756C2069732D
S11328003A20307825780A00446174612041434BB2
S11328102053656E642069733A2025640A0A000017
S113282044617461205265636569766564206973E7
S11328303A2025640A000000504950452073656E13
S1132840642069733A2025730A0A00004D4F4445F9
S11328503A204174746163680A0A000053494D5F69
S11328605549444D4C3A2025780A0A0000000000DE
S1132870FF00000000600640006006404D435549DB
S1132880443A20257300000000BF00BF00BF00BF12
S1132890FFF77EFF25730A0A00000000704700005E
S11328A0FFFFFFFFFF0000000A0B0C0D0E0F0000DE
S11328B01112131415160000000102030405000090
S90328894B
