S01C00004B6C32367A5F436F737461526963615F46494A4F2E7372656310
S1130000F817002011040000411F0000411F0000E8
S1130010411F0000411F0000411F0000411F00005C
S1130020411F0000411F0000411F0000411F00004C
S1130030411F0000411F0000411F0000411F00003C
S1130040411F0000411F0000411F0000411F00002C
S1130050411F0000411F0000411F0000411F00001C
S1130060411F0000411F0000411F0000411F00000C
S1130070411F0000411F0000411F0000411F0000FC
S1130080411F0000411F0000411F0000411F0000EC
S1130090411F0000411F0000411F0000411F0000DC
S11300A0411F0000411F0000411F0000411F0000CC
S11300B0411F0000411F0000411F00006B1C000095
S11300C0FFFFFFFFFFFFFFFFFFFFFFFFFFFFFFFF3C
S11300D0FFFFFFFFFFFFFFFFFFFFFFFFFFFFFFFF2C
S11300E0FFFFFFFFFFFFFFFFFFFFFFFFFFFFFFFF1C
S11300F0FFFFFFFFFFFFFFFFFFFFFFFFFFFFFFFF0C
S1130400FFFFFFFFFFFFFFFFFFFFFFFFFEFFFFFFF9
S113041000200021002200230024002500260027BC
S113042062B601F0A4FCFEE780B500220021BD48BD
S113043000F01AFB01BD80B501220021B94800F08B
S113044028FB01BD80B500220021B64800F021FB45
S113045001BD80B500220021B34800F01AFB01BDA4
S113046080B501220021B04800F013FB01BD10B596
S11304700400FFF7EEFFAD4800F0ACFCE106C90E46
S1130480AA4800F0B2FCA94800F0A4FCFF21A74848
S113049000F0ABFCA54800F0AAFCA44800F0BAFCAC
S11304A0A24800F0A4FCA14800F0B4FC040000F051
S11304B0B3FC00F0B1FCFFF7D3FF2000C0B210BDC5
S11304C070B506000C001500FFF7C3FF974800F055
S11304D081FCF006C00E20210143C9B2934800F00C
S11304E084FC924800F083FC904800F093FC0600E2
S11304F00DE08E4800F06EFC21788C4800F075FC0D
S1130500641C8A4800F073FC884800F083FC2800CF
S1130510451EC0B20028ECD100F07EFCFFF7A0FF1E
S11305203000C0B270BD38B505000C00FFF791FF74
S11305307E4800F04FFCE806C00E20210143C9B2FA
S11305407A4800F052FC794800F044FC2100C9B21A
S1130550764800F04AFC754800F049FC734800F006
S113056059FC0400714800F042FC704800F052FC51
S113057000F052FCFFF774FF2000C0B232BD10B58A
S113058000208F49087020208C4908700020904971
S1130590087005208B49087005208B4908600020ED
S11305A08A4908700024FFF73FFFFFF74BFF9620AE
S11305B000F03AFC0C210020FFF7B5FF0F210520C5
S11305C000F06CF8022000F039F8002802D0012075
S11305D07B4908700620FFF74AFF0400002000F062
S11305E02DF800F065F800211D20FFF79CFF002185
S11305F01C20FFF798FF0020754908707021072020
S1130600FFF791FF4C2000F059F800F066F800F075
S113061069F800F08DF80020FFF729FFFE21014062
S11306200020FFF780FFE4B2002C04D0E4B2FF2CDA
S113063001D0012000E00020C0B210BD70B506005A
S113064000250620FFF713FF04002000D7240440F0
S1130650FA2060490860F6B2022E07D12000202457
S11306600443E12040005B49086008E0F6B2012E33
S113067002D1200008240443BE205649086021000A
S1130680C9B20620FFF74FFF0620FFF7F0FEE4B2E1
S1130690A04200D101252800C0B270BD80B5000180
S11306A00907090F0143C9B20420FFF73CFF01BD4C
S11306B080B573215020FFF736FF01BD80B50100DE
S11306C07D200A000300D2B2DBB29A4200D30100BB
S11306D0C9B20520FFF727FF01BD80B5E22000F075
S11306E006F802BD80B5E12000F001F802BD10B5A6
S11306F00400FFF7AEFE0D4800F06CFB2100C9B208
S11307000A4800F072FB094800F071FB074800F04A
S113071081FB040000F080FBFFF7A2FE2000C0B2C2
S113072010BD000080F00F40C0F00F400060074093
S113073080B50020FFF79BFE810708D40221014306
S1130740C9B20020FFF7EFFE052000F06DFB01BDEC
S11307501CB50400E4B2002C05D11A48027869469D
S11307601A4800F0A7FBE4B2072C26DAE4B2022C04
S113077008DA1448027869464148E4B2005DFFF79C
S11307809FFE06E0012269463D48E4B2005DFFF7A2
S113079097FE0A4801783B48E4B2005DFFF7C3FEC8
S11307A00220FFF764FE0121374AE4B2125D914052
S11307B00143C9B20220FFF7B6FE13BD22FCFF1F9E
S11307C021FCFF1F24FCFF1F14FCFF1F18FCFF1F4C
S11307D023FCFF1F10FCFF1FF8B50C000600534854
S11307E000782100C9B2884201D250480478784880
S11307F00078002801D0002502E04C480078051B51
S1130800FFF727FE734800F0E5FA6121714800F014
S1130810ECFA704800F0EBFA6E4800F0FBFA0700BF
S11308200EE06C4800F0D6FAFF216A4800F0DDFAC9
S1130830684800F0DCFA674800F0ECFA3070761C87
S11308402000441EC0B20028EBD12800451EC0B2CF
S113085000280DD05F4800F0BDFAFF215D4800F08C
S1130860C4FA5C4800F0C3FA5A4800F0D3FAECE743
S113087000F0D2FAFFF7F4FD3800C0B2F2BD000078
S1130880281F0000301F0000381F000080B5FF2023
S1130890FFF72DFF02BD80B5002000F001F802BD76
S11308A010B504001720FFF7E2FDC0070AD4002C9E
S11308B006D0FFF7EBFFC0B240084007400F20709E
S11308C0012000E0002010BD80B5C9B2FFF784FF0D
S11308D070210720FFF727FE01BD80B5FFF728FF31
S11308E00020FFF7C4FD01210143C9B20020FFF736
S11308F01AFE70210720FFF716FEFFF79CFD5148F2
S11309000078002806D0134802784E490A20FFF7E1
S1130910D7FD02E0002000F00BF81D20FFF7A7FD33
S1130920800701D5FFF7DEFE01BD000022FCFF1F9A
S113093010B504000220FFF79AFD0121424AE4B2F7
S1130940125D914088430100C9B20220FFF7EBFD1C
S113095010BD000024FCFF1F80B5C0B2002804D0E5
S11309603F210120FFF7DFFD03E000210120FFF715
S1130970DAFD01BD80B51D20FFF779FD0621014395
S1130980C9B21D20FFF7CFFD1C20FFF770FD032126
S11309900143C9B21C20FFF7C6FD01200C490870B1
S11309A001BD80B51D20FFF762FD04210143C9B2DA
S11309B01D20FFF7B8FD1C20FFF759FD3F2101431F
S11309C0C9B21C20FFF7AFFD01200149087001BD29
S11309D023FCFF1F0060074070B506000C00D2B274
S11309E0202A01DA150000E02025FFF732FD174820
S11309F000F0F0F97007400FA8210143C9B2134871
S1130A0000F0F3F9114800F0F2F9104800F002FA8E
S1130A100DE00E4800F0DEF921780C4800F0E5F90D
S1130A20641C0A4800F0E3F9084800F0F3F92800D0
S1130A30451EC0B20028ECD1FFF712FD012000F0E2
S1130A40F3F970BD18FCFF1F381F00000060074059
S1130A5080B51D20FFF70BFD01210143C9B21D2004
S1130A60FFF761FD01BD460070B505000C001600DE
S1130A70280000F02EF801222100C9B2280000F05D
S1130A8060F83200D2B22100C9B2280000F0BEF8EA
S1130A9070BD00B5D2B2002A03D0022A0DD006D30D
S1130AA011E0826801238B401343836010E04268A5
S1130AB001238B40134343600AE0C26801238B4047
S1130AC01343C36004E0826801238B4013438360B3
S1130AD000BD00B57A49884207D17A480068802170
S1130AE089000143774801602AE07749884207D1A9
S1130AF0744800688021C9000143724801601FE006
S1130B007249884207D16F48006880210901014376
S1130B106C48016014E06E49884207D16948006856
S1130B208021490101436748016009E0694988421D
S1130B3006D164480068802189010143614801604D
S1130B4000BD00B55E4B984210D16348C9B204237E
S1130B504B43C058D2B21202E023DB0013400343DC
S1130B605D48C9B20422514343504EE0564B98426B
S1130B7010D15A48C9B204234B43C058D2B212020E
S1130B80E023DB00134003435448C9B20422514319
S1130B9043503AE04D4B984210D15148C9B2042316
S1130BA04B43C058D2B21202E023DB00134003438C
S1130BB04B48C9B204225143435026E0444B984267
S1130BC010D14848C9B204234B43C058D2B21202D0
S1130BD0E023DB00134003434248C9B204225143DB
S1130BE0435012E03B4B98420FD13F48C9B2042313
S1130BF04B43C058D2B21202E023DB00134003433C
S1130C003948C9B204225143435000BD00B5D2B2A1
S1130C10002A01D0002200E001224369D2B28A40B6
S1130C201A43426100BD10B50024254CA0421BD1DB
S1130C30294CD2B2002A37D0C9B2042048432058E4
S1130C4002220243C9B2042048432250DBB2002BE3
S1130C501FD0C9B204204843205801220243C9B21C
S1130C6004204143625029E0174CA04201D11B4C9F
S1130C70DFE7164CA04201D1194CDAE7144CA0422C
S1130C8001D1184CD5E7134CA04201D1164CD0E742
S1130C9014E0C9B204204843205801229043C9B249
S1130CA004225143605009E0C9B20420484320584B
S1130CB002229043C9B204225143605010BD000087
S1130CC000F00F403880044040F00F4080F00F40A7
S1130CD0C0F00F4000F10F400090044000A0044019
S1130CE000B0044000C0044000D00440FEB506003B
S1130CF00C00089D099F0198FFF7EBFE3800FFF7F1
S1130D00E8FE0C98FFF7E5FE0F98FFF7E2FE2A00D5
S1130D10D2B26846017A0198FFF713FF0BA8027854
S1130D200AA801783800FFF70CFF0EA802780DA876
S1130D3001780C98FFF705FF3348844207D1334804
S1130D4000688021C90301433048016006E02F4850
S1130D5000688021090401432C480160109DF6B20B
S1130D60002E08D0119A2900C9B20F98FFF7E9FEA6
S1130D701E20E07013E001222900C9B20F98FFF78A
S1130D80E0FE00222900C9B20F98FFF73FFF1020B0
S1130D90E07000222900C9B20F98FFF77AFE002004
S1130DA0A070A07810210143A17022206070E07827
S1130DB040210143E170F6B2002E0AD1002000E088
S1130DC0401C0A28FCDB01222900C9B20F98FFF756
S1130DD060FEF7BD00B50E4900E0491E0278920698
S1130DE002D489B20029F8D100BD8171704700B5E1
S1130DF0074900E0491E0278120602D489B200298C
S1130E00F8D100BD000000000060074034800440B9
S1130E10FFFF00008079704700B5002000E0401C0F
S1130E203228FCDB00BF00BD00B5002206E0491CEF
S1130E30FA235B019942FADB00BF521C824201D2C1
S1130E400021F5E700BD00B50F49096801220A43F6
S1130E500D490A6000210D4A11600D490860052002
S1130E600C490860094800680121014307480160F2
S1130E70064800680006FBD5044800680121884341
S1130E800249086000BD00003880044000000440AE
S1130E90080004400400044000B5010000200029BB
S1130EA002D1002005E0401C0A00511C1278002ADF
S1130EB0F9D100BD30B503000C00002819D0002979
S1130EC017D0002A15D09107890F521A920803E00F
S1130ED025681D60241D1B1D15006A1E002DF7D1F9
S1130EE003E022781A70641C5B1C0A00511E002A5D
S1130EF0F7D130BD10B50C001168012902D00229C8
S1130F0004D009E0C0B25168884705E091680870D0
S1130F109068401C9060FFE72068401C206010BD72
S1130F20F0B51C0000260500002028706D1C002A66
S1130F301DD00F68002F06D130202870761C300099
S1130F40F0BD30320EE0002FF9D03800210000F05F
S1130F5065FA0100080060433A1A002AF1D5D0432B
S1130F60020031320F002A706D1C761CEBE70F680B
S1130F70002F08D130202870761CE0E737300F00AE
S1130F8028706D1C761C002FD9D03800210000F089
S1130F9048FA010008006043381A0A28EED23030BB
S1130FA0EDE7F8B50F0016001D00040005E02A0067
S1130FB031003020FFF79EFF641CBC42F7DBF1BD1B
S1130FC0F8B50F0016001D00040005E02A003100EA
S1130FD02020FFF78FFF641CBC42F7DBF1BDF1B5A5
S1130FE090B01600002000900C0009E0109A6946A9
S1130FF0FFF780FF03E03068361D00990160641C30
S11310002078002800D1BEE1252811D00A2804D078
S1131010109A6946FFF76EFF09E0109A69460D20A1
S1131020FFF768FF109A69460A20FFF763FFE6E7B7
S11310300027002102E038000127074300291FD1BF
S1131040641C207820280CD0232812D02B2804D00C
S11310502D28F0D0302808D00FE0380002270743AD
S1131060ECE7380004270743E8E73800082707437C
S1131070E4E7380010270743E0E7641E0121DDE7B9
S113108000200190002105E0019A0A235A43101818
S113109030380190002908D1641C20780200303ACD
S11310A0092AF1D9641E0121F4E7641C20782E2852
S11310B00BD10021FFE7002908D1641C20783038C7
S11310C00928F8D9641E0121F5E7641E641C207800
S11310D04C2806D0682802D06C2801D002E002E037
S11310E001E000E0641E641C20780100582971D0DE
S11310F0622900D1CAE0632900D113E1642913D025
S1131100692911D06E2900D175E76F2900D1B2E0A9
S1131110702900D1C5E0732900D10BE1752900D1F4
S1131120CAE0782956D061E73068361D06900A2354
S1131130012206A907A8FFF7F3FE050007A8401936
S113114005900698002803D52D2003906D1C0DE012
S1131150B80703D52B2003906D1C07E0780703D54F
S1131160202003906D1C01E00020039000200490D7
S1131170380711D50398002804D0109A69460398BB
S1131180FFF7B8FE01200490109B6A4601992800DD
S1131190FFF707FF019D11E0F8070FD4109B6A4683
S11311A001992800FFF70CFF0398002804D0109A37
S11311B069460398FFF79EFE0120049004980028D6
S11311C007D10398002804D0109A69460398FFF7C2
S11311D091FE9AE03068361D02901023002202A985
S11311E007A8FFF79DFE050007A8401905900020F9
S11311F00490380715D5F8060BD5109A69463020A7
S1131200FFF778FE109A69467820FFF773FE0120F5
S11312100490109B6A4601992800FFF7C2FE019DC5
S113122018E0F80716D4F80600D5AD1C109B6A46E2
S113123001992800FFF7C4FEF8060BD5109A6946F9
S11312403020FFF757FE109A69467820FFF752FEC8
S113125001200490F8060DD5049800280AD1109AAC
S113126069463020FFF746FE109A69467820FFF75A
S113127041FEAD1C49E03068361D0290082300226F
S113128002A907A8FFF74CFE05001FE03068361DD1
S113129002900223002202A907A8FFF741FE0500DD
S11312A014E03068361D02901023002202A907A81A
S11312B0FFF736FE050009E03068361D02900A2368
S11312C0002202A907A8FFF72BFE050007A8401972
S11312D00590380707D5109B6A4601992800FFF747
S11312E060FE019D11E0F8070FD4109B6A46019936
S11312F02800FFF765FE08E0109A69460598007813
S1131300FFF7F8FD0598401E059005980078002821
S1131310F2D1F80705D5109B6A4601992800FFF71A
S11313204FFE6CE63068361DC0B2109A6946FFF76E
S1131330E1FD64E63068361D03900398002821D04F
S11313400398FFF7A9FD0500F8070FD4109B6A4620
S113135001992800FFF734FE08E0109A69460398C3
S11313600078FFF7C7FD0398401C039003980078AA
S11313700028F2D1F80705D5109B6A460199280088
S1131380FFF71EFE3BE6009811B0F0BD80B50100EA
S113139012480078002804D1C9B2114800F0DEF9DF
S11313A00CE00E480078012804D1C9B20D4800F0C1
S11313B021F903E0C9B20C4800F01CF901BD0CB4DA
S11313C0E0B5064A1070012000900848019004AA74
S11313D06846FFF704FE039906B0084720FCFF1F88
S11313E000A0064000B0064000C006408D13000077
S11313F0F446002804D4494200F013F84042604700
S11314004042002905D45FD000F00BF84042494225
S11314106047494200F005F84942604703460B43E0
S1131420E6D40022030A8B420BD203098B4219D261
S113143043088B422ED2411A00D201465241104633
S11314407047FF2209023FD012068B4205D31212C5
S113145009028B4201D31212090203098B4219D3E8
S113146000E0090AC3098B4201D3CB01C01A5241DF
S113147083098B4201D38B01C01A524143098B4229
S113148001D34B01C01A524103098B4201D30B0112
S1131490C01A5241C3088B4201D3CB00C01A524137
S11314A083088B4201D38B00C01A524143088B42FC
S11314B001D34B00C01A5241884200D3401A524112
S11314C0CFD201461046704708B500F04DF908BD6B
S11314D0F7B51E00C0B2002813D1944909688022D0
S11314E0D2040A4391490A6090490968904A0A4023
S11314F08E490A608F4909688022D2000A438D49C7
S11315000A60C0B2012806D18A4909688022120102
S11315100A4388490A60C0B2022806D18548006897
S1131520802149010143834801600A9D099F089C69
S11315300198FFF7CEFA2000FFF7CBFA3200D2B2BF
S11315406846017A0198FFF7FCFA2A00D2B2390002
S1131550C9B22000FFF7F5FAF7BD30B50400080062
S11315601100754DE4B2012C0BD1734D724A9542B2
S11315700DD1704A126880231B0113436D4A136016
S11315800CE0E4B2022C01D16C4DEFE7FEE7694AAE
S1131590126880235B011343664A1360EA78F323DD
S11315A01340EB70AA78AA70FA22920050431022DA
S11315B05143FFF733FF2A78E0211140020092B231
S11315C0120AD206D20E0A432A706870E8780C21F7
S11315D00143E970E4B2012C04D1E8780C21014301
S11315E0E97006E0E4B2022C03D1E8780421014357
S11315F0E97030BD00B502791206FCD5C17100BD99
S1131600F8B50200002000260027002300204948E6
S113161000688023DB0003434648036048480078A1
S1131620F32303404648037010002038454B98428A
S113163008D300223D4803681800434B03403B484D
S11316400360FEE70C00FA20800042430092042568
S11316500098EDB221006943FFF7E3FE0100009812
S1131660EDB26943FFF7DDFE844201D2061B00E0C0
S1131670261AEDB22F00052516E0201A0EE0009878
S1131680EDB221006943FFF7CCFE01000098EDB2F2
S11316906943FFF7C6FE8442EFD2001B864202D3A1
S11316A00600EDB22F006D1CEDB2212DE7DB20000A
S11316B06421FFF7B6FE03214843864234D2380042
S11316C0001F052805D221480078022101431F4844
S11316D001701F480378DBB21F2083431900781E72
S11316E0C0B2C306DB0E0B43180019490870DB06B1
S11316F0DB0E5B1C00985C432100FFF792FE0100A7
S113170014480378DBB21F208343080AC006C00EC6
S11317101843104A107010480170094800780C21D1
S1131720014307480170F1BDFEE700000480044056
S1131730FFFFFEFF3480044000B0064000C00640B6
S113174003A0064031C30000FFFFFFF30BA00640D7
S11317500AA0064000A0064001A0064000B5027998
S11317601206FCD5C17100BD7047000080B500228F
S11317700021012000F011F800220121012000F0D5
S1131780CDF80021002000F0F3F8624800688021C1
S1131790490201435F48016001BD10B5C0B2012890
S11317A006D15D480078042303435B48037005E0D9
S11317B059480078FB230340574803707948007860
S11317C00B0130241C40044376480470C9B200293C
S11317D04BD1012A0ED0022A11D0042A16D0082A8D
S11317E01BD0102A20D0202A25D0402A2AD0802A93
S11317F02FD035E0484800784749087088E04648CB
S11318000078082101434448017081E0424800788F
S113181010210143404801707AE03F4800781821C4
S113182001433D48017073E03B48007820210143A7
S1131830394801706CE03848007828210143364863
S1131840017065E03448007830210143324801706A
S11318505EE031480078382101432F48017057E099
S11318602D4800782C49087052E0203A16D0203ACE
S113187019D0403A1ED0803A23D080204000121A5A
S113188026D080208000121A29D080204000121A0D
S11318902CD080204000121A2FD035E01E4800784A
S11318A01D49087034E01C480078082101431A4897
S11318B001702DE01848007810210143164801708A
S11318C026E01548007818210143134801701FE0F1
S11318D011480078202101430F48017018E00E4898
S11318E00078282101430C48017011E00A4800786F
S11318F030210143084801700AE007480078382184
S113190001430548017003E0034800780249087068
S113191010BD0000448004400040064010B5224B36
S11319201B784001602404401C431F480470C9B262
S1131930012906D11C480078802101431A4801700E
S113194005E0194800784006400E17490870D2B2E5
S1131950012A06D112480078102101431048017071
S113196005E00F480078EF2101400D48017010BDDB
S113197000B5C0B2012806D10C48007840220243C9
S11319800A48027005E009480078BF22024007486F
S1131990027007480078890101430548017000BDC1
S11319A0084006400140064003400640054006400A
S11319B00040064080B5FA204000FFF744FA0022B8
S11319C001216148FFF750F800221F215E48FFF70C
S11319D04BF8002203215D48FFF746F800221D2141
S11319E05948FFF741F8002202215848FFF73CF814
S11319F0002201215548FFF737F801221D215248E2
S1131A00FFF747F8012202215048FFF742F801226C
S1131A1001214E48FFF73DF8012204214C48FFF70D
S1131A2023F8012203214A48FFF71EF80122062168
S1131A304848FFF719F8012205214548FFF714F833
S1131A40012206214248FFF70FF84348006880212D
S1131A50090101434048016040480068404901438E
S1131A603E4801601F2000F08CF8002000F005F8CB
S1131A70012000F038F862B601BDE0B5C0B200281C
S1131A8017D004200290152001902F4800900423C1
S1131A9014222D490020FFF71BFD962189013148AE
S1131AA0FFF7AEFD30480078402101432E48017015
S1131AB018E02E4800688021C90001432B480160CA
S1131AC02B480078F32101402948017000230122AA
S1131AD014211D48FFF7A7F80023012215211A48F5
S1131AE0FFF7A1F807BDE0B5C0B2002812D004206A
S1131AF002901720019014480090042316221249E2
S1131B000220FFF7E5FC962292011A490220FFF712
S1131B1024FD18E015480068802149010143134859
S1131B20016015480078F321014013480170002337
S1131B30012216210448FFF776F800230122172119
S1131B400148FFF770F807BD00F10F4040F00F4067
S1131B5080F00F40C0F00F403880044018B00440BB
S1131B6003010A0080BB000002A006403480044048
S1131B7003A00640C05D000003C006400E49086093
S1131B80704770B50400212C15DA0C48056801264D
S1131B9020002021FFF742FC8E402E4307480660B8
S1131BA007480568012620002021FFF737FC8E40F6
S1131BB02E430348066070BD08ED00E080E200E0BB
S1131BC000E100E000B58BB0FFF7F4FE3D490220D0
S1131BD0FFF7F5FB3C490220FFF7F1FB39490220EE
S1131BE0FFF7EDFB0220099000200890374807908A
S1131BF002200690012005903448049002200390AE
S1131C0003200290314801900220009002232F4AC1
S1131C102F490020FFF76AF82E490220FFF7CFFB77
S1131C200720FEF724FC0E2804D12B490220FFF7DD
S1131C30C6FB03E029490220FFF7C1FBFEF79FFC26
S1131C400120FEF789FEFEF795FEFEF7AAFE244A60
S1131C50F0230120FEF77CFDFEF73FFEFEF7F8FEC1
S1131C600F210F20FEF71AFDFEE780B500A8401CE7
S1131C701C490A7802706846002101701A480068FD
S1131C80C0011ED518480068802149040143164844
S1131C900160FEF700FE002813D0012200A9491CB0
S1131CA00120FEF799FE01216846FEF70DFE0F495B
S1131CB00220FFF784FB684602780D490220FFF7F3
S1131CC07EFB01BDB01D0000781E0000C0F00F4077
S1131CD000600740F81E0000101F0000181F0000DD
S1131CE0F0F0F0F0660A000018B00440E01E0000B6
S1131CF0201F000080B52348234988420ED00020CD
S1131D0008E021490422424389581E4A04234343DC
S1131D10D150401C822149008842F2D31948FFF770
S1131D202DFF1A491A4A1B48801A03E013780B70D6
S1131D30521C491C0300581E002BF7D116491748A2
S1131D40401A02E000220A70491C0200501E002AB8
S1131D50F8D11349134A1448801A03E013780B701E
S1131D60521C491C0300581E002BF7D101BD80B53D
S1131D7000200E490860FFF7BDFFFFF7F7FCFFF7EF
S1131D8021FFFEE700F8FF1F000000000000000034
S1131D90000000000000000010FCFF1F28FCFF1FD3
S1131DA028FCFF1F421F0000421F00000081044066
S1131DB02D2D2D2D2D2D2D2D2D2D2D2D2D2D2D2D4F
S1131DC02D2D2D2D2D2D2D2D2D2D2D2D2D2D2D2D3F
S1131DD02D2D2D2D2D2D2D2D2D2D2D2D2D2D2D2D2F
S1131DE02D2D2D2D2D2D2D2D2D2D2D2D2D2D2D2D1F
S1131DF02D2D2D2D2D2D2D2D2D2D2D2D0A0A0000AF
S1131E0070B401000123002413E00A68091D1A427A
S1131E1002D04D466D1E52191460121D001F042875
S1131E20FAD21500860701D51480AD1C184000D0E5
S1131E302C700868091D0028E7D1080070BC7047A1
S1131E4010B5074979441831064C7C44163404E033
S1131E50081D0A68891888470100A142F8D110BDFD
S1131E60080000001400000099FFFFFF18000000A4
S1131E7010FCFF1F0000000020202057656C636FDA
S1131E806D6520746F204669726D776172653A20C2
S1131E9046494A4F0A0A000000F00BF8002801D016
S1131EA0FFF7CEFF002000BF00BFFFF78BFE00F05E
S1131EB002F80120704780B500F002F801BD00006F
S1131EC00746384600F002F8FBE7000080B500BF83
S1131ED000BF024A11001820ABBEFBE72600020037
S1131EE04D65737361676520726563656976652006
S1131EF06973203A200000006E524632344C30316F
S1131F003A20000000BF00BF00BF00BFFFF7C4FFBE
S1131F104F4B0A0A000000004552524F520A0A0071
S1131F2025630A0A000000000A0B0C0D0E0F0000C6
S1131F301112131415160000000102030405000019
S1051F407047E4
S9031F05D8
